S016000054726166666963204C69676874732E73726563C4
S11300000C942A000C9446030C9447000C9447006B
S11300100C9447000C9447000C9447000C94470040
S11300200C9447000C9447000C9447000C94470030
S11300300C9447000C9447000C9447000C94470020
S11300400C9447000C9447000C9447000C94470010
S11300500C94470011241FBECFE5D8E0DEBFCDBF0E
S113006010E0A0E6B0E0E4E8F7E002C005900D92ED
S1130070AA36B107D9F720E0AAE6B0E001C01D9284
S1130080A637B207E1F70E9441030C94C0030C9415
S1130090000010926B0060E083E00E94360360E091
S11300A082E00E94360360E080E00E943A0360E050
S11300B081E00E943A0360E085E00E943A0360E038
S11300C084E00E943A0368E873E180E090E00E94D3
S11300D09003089510926B0060E085E00E9436035F
S11300E060E080E00E94360360E082E00E943A0310
S11300F060E081E00E943A0360E083E00E943A03FA
S113010060E084E00E943A0368E873E180E090E0F4
S11301100E949003089560E084E00E94360360E04A
S113012081E00E94360360E082E00E943A0360E0CE
S113013080E00E943A0360E083E00E943A0360E0BA
S113014085E00E943A0368E873E180E090E00E9451
S11301509003089568E873E180E090E00E949003C2
S1130160089560E080E00E94320360E082E00E9433
S1130170320360E081E00E94320360E083E00E9489
S1130180320360E085E00E94320360E084E00E9474
S1130190320363E082E00E94A20183E00E946D03C7
S11301A00E948D038CE793E00E947703ECE6F0E075
S11301B01082118278940895CF93DF93CCE6D0E037
S11301C0E881F0E0EE0FFF1FE05AFF4F0190F0814D
S11301D0E02D099588818230C9F128F4882351F0F3
S11301E08130C1F06AC0833009F44EC0843009F410
S11301F052C063C080916B00813031F4ECE6F0E0D2
S113020084E08083118259C0ECE6F0E082E08083D0
S1130210118253C080916B00813039F4ECE6F0E038
S113022083E0808381E0818348C080916D008430C5
S113023031F4ECE6F0E0808381E081833EC0ECE6BB
S1130240F0E082E0808381E0818337C080916B009D
S1130250813049F4ECE6F0E084E0808382E081833D
S113026010926B002AC080916D00811107C0ECE6EA
S1130270F0E081E0808382E081831FC0ECE6F0E05F
S1130280108282E0818319C0ECE6F0E084E0808390
S113029083E0818312C080916D00833011F081303E
S11302A031F4ECE6F0E0108284E0818306C0ECE6F1
S11302B0F0E081E0808384E08183DF91CF91089531
S11302C00E948D0360E084E00E943E0360E081E0D0
S11302D00E943E0364EF71E080E090E00E9490038E
S11302E060E084E00E943E0360E081E00E943E03FF
S11302F064EF71E080E090E00E9490030895CF9352
S1130300DF9380916D00813021F460E085E00E94EC
S1130310360360E080E00E943A0360E083E00E94DC
S11303203A0360E082E00E943A0385E090E003C073
S11303300E946001CE01EC012197892BC9F7DF915E
S1130340CF9108956130A1F028F06230F9F0633064
S113035059F108954AB321E030E0B90102C0660FB3
S1130360771F8A95E2F7CB01809584238ABB089591
S113037047B321E030E0B90102C0660F771F8A95C8
S1130380E2F7CB018095842387BB089544B321E031
S113039030E0B90102C0660F771F8A95E2F7CB01FE
S11303A08095842384BB089541B321E030E0B901F2
S11303B002C0660F771F8A95E2F7CB0180958423EC
S11303C081BB0895613041F138F0623009F444C0D2
S11303D0633009F461C00895442319F0413079F081
S11303E008954AB321E030E0B90102C0660F771FD7
S11303F08A95E2F7CB01809584238ABB08954AB39A
S113040021E030E0B90102C0660F771F8A95E2F758
S1130410CB01842B8ABB0895442319F0413079F031
S1130420089547B321E030E0B90102C0660F771F99
S11304308A95E2F7CB018095842387BB089547B35F
S113044021E030E0B90102C0660F771F8A95E2F718
S1130450CB01842B87BB0895442319F0413079F0F4
S1130460089544B321E030E0B90102C0660F771F5C
S11304708A95E2F7CB018095842384BB089544B325
S113048021E030E0B90102C0660F771F8A95E2F7D8
S1130490CB01842B84BB0895442319F0413079F0B7
S11304A0089541B321E030E0B90102C0660F771F1F
S11304B08A95E2F7CB018095842381BB089541B3EB
S11304C021E030E0B90102C0660F771F8A95E2F798
S11304D0CB01842B81BB0895613041F138F0623047
S11304E009F444C0633009F461C00895442319F049
S11304F0413079F008954BB321E030E0B90102C0F6
S1130500660F771F8A95E2F7CB01809584238BBB16
S113051008954BB321E030E0B90102C0660F771FA4
S11305208A95E2F7CB01842B8BBB0895442319F001
S1130530413079F0089548B321E030E0B90102C0B8
S1130540660F771F8A95E2F7CB018095842388BBD9
S1130550089548B321E030E0B90102C0660F771F67
S11305608A95E2F7CB01842B88BB0895442319F0C4
S1130570413079F0089545B321E030E0B90102C07B
S1130580660F771F8A95E2F7CB018095842385BB9C
S1130590089545B321E030E0B90102C0660F771F2A
S11305A08A95E2F7CB01842B85BB0895442319F087
S11305B0413079F0089542B321E030E0B90102C03E
S11305C0660F771F8A95E2F7CB018095842382BB5F
S11305D0089542B321E030E0B90102C0660F771FED
S11305E08A95E2F7CB01842B82BB0895613099F0A0
S11305F028F06230E9F0633041F108954BB321E013
S113060030E0B90102C0660F771F8A95E2F7CB018B
S113061084278BBB089548B321E030E0B90102C0C0
S1130620660F771F8A95E2F7CB01842788BB08956C
S113063045B321E030E0B90102C0660F771F8A9507
S1130640E2F7CB01842785BB089542B321E030E073
S1130650B90102C0660F771F8A95E2F7CB018427A0
S113066082BB089541E00E94E201089541E00E94A6
S11306706C02089540E00E946C0208950E94F60204
S113068008950E94B1000E94DC00FDCF1F920F92DA
S11306900FB60F9211242F933F934F935F936F9351
S11306A07F938F939F93AF93BF93EF93FF93E091C7
S11306B07200F09173000995FF91EF91BF91AF9192
S11306C09F918F917F916F915F914F913F912F9166
S11306D00F900FBE0F901F90189591B39B7F91BB05
S11306E095B7892B85BF8BB780648BBF0895909392
S11306F0730080937200089581E080936B0080936F
S11307006A00089593B7892B83BF089583B78F7CBC
S113071083BF83B7887F83BF089583B783BF08955A
S1130720CF92DF92EF92FF926B017C0186E082BF51
S113073081E00E9482030DC008B600FEFDCF9F5FDA
S113074088B7816088BF01C090E09430A8F36A0143
S11307507B01B701A6014150510961097109CD28F6
S1130760CE28CF2821F080916A00882369F3109263
S11307706A000E948603FF90EF90DF90CF90089567
S1070780F894FFCF17
S10D078449006A008B00AA007F01FF
S9030000FC
