S016000054726166666963204C69676874732E73726563C4
S11300000C942A000C9459030C9447000C94470058
S11300100C9447000C9480030C9447000C94470004
S11300200C9447000C9447000C9447000C94470030
S11300300C9447000C9447000C9447000C94470020
S11300400C9447000C9447000C9447000C94470010
S11300500C94470011241FBECFE5D8E0DEBFCDBF0E
S113006010E0A0E6B0E0ECEBFBE002C005900D92DE
S1130070AC36B107D9F720E0ACE6B0E001C01D9280
S1130080A738B207E1F70E9454030C94DC050C94E2
S1130090000010926E0060E083E00E94490360E07B
S11300A082E00E94490360E080E00E944D0360E02A
S11300B081E00E944D0360E085E00E944D0360E012
S11300C084E00E944D0368E873E180E090E00E94C0
S11300D0E603089510926E0060E085E00E944903F3
S11300E060E080E00E94490360E082E00E944D03EA
S11300F060E081E00E944D0360E083E00E944D03D4
S113010060E084E00E944D0368E873E180E090E0E1
S11301100E94E603089560E084E00E94490360E0E1
S113012081E00E94490360E082E00E944D0360E0A8
S113013080E00E944D0360E083E00E944D0360E094
S113014085E00E944D0368E873E180E090E00E943E
S1130150E603089568E873E180E090E00E94E60316
S1130160089560E080E00E94450360E082E00E9420
S1130170450360E081E00E94450360E083E00E9463
S1130180450360E085E00E94450360E084E00E944E
S1130190450363E082E00E94B50181E00E94A70369
S11301A00E94E30386EB93E00E94B10381E00E9486
S11301B0210488E594E00E948604E3E7F0E01082DD
S11301C0118278940895CF93DF93C3E7D0E0E88158
S11301D0F0E0EE0FFF1FE05AFF4F0190F081E02D99
S11301E0099588818230C9F128F4882351F081303F
S11301F0C1F06AC0833009F44EC0843009F452C09F
S113020063C080916E00813031F4E3E7F0E084E074
S11302108083118259C0E3E7F0E084E08083118297
S113022053C080916E00813039F4E3E7F0E083E05D
S1130230808381E0818348C080917400843031F4EC
S1130240E3E7F0E0808381E081833EC0E3E7F0E010
S113025084E0808381E0818337C080916E008130A7
S113026049F4E3E7F0E084E0808382E08183109244
S11302706E002AC080917400811107C0E3E7F0E0AA
S113028081E0808382E081831FC0E3E7F0E0108295
S113029082E0818319C0E3E7F0E084E0808383E0B7
S11302A0818312C080917400833011F0813031F465
S11302B0E3E7F0E0108284E0818306C0E3E7F0E046
S11302C081E0808384E08183DF91CF9108950E944F
S11302D0E30360E084E00E94510360E081E00E9457
S11302E0510364EF71E080E090E00E94E60360E077
S11302F084E00E94510360E081E00E94510364EFB6
S113030071E080E090E00E94E6030895CF93DF93CC
S113031080917400813061F480916A00811108C079
S113032060E085E00E94490381E080936A0004C094
S113033060E085E00E944D0360E080E00E944D0390
S113034060E083E00E944D0360E082E00E944D0380
S113035085E090E003C00E946701CE01EC01219783
S1130360892BC9F7DF91CF9108956130A1F028F06E
S11303706230F9F0633059F108954AB321E030E076
S1130380B90102C0660F771F8A95E2F7CB01809509
S113039084238ABB089547B321E030E0B90102C049
S11303A0660F771F8A95E2F7CB018095842387BB7C
S11303B0089544B321E030E0B90102C0660F771F0D
S11303C08A95E2F7CB018095842384BB089541B3D9
S11303D021E030E0B90102C0660F771F8A95E2F789
S11303E0CB018095842381BB0895613041F138F0BD
S11303F0623009F444C0633009F461C008954423B1
S113040019F0413079F008954AB321E030E0B901A0
S113041002C0660F771F8A95E2F7CB01809584238B
S11304208ABB08954AB321E030E0B90102C0660FE7
S1130430771F8A95E2F7CB01842B8ABB0895442366
S113044019F0413079F0089547B321E030E0B90163
S113045002C0660F771F8A95E2F7CB01809584234B
S113046087BB089547B321E030E0B90102C0660FAD
S1130470771F8A95E2F7CB01842B87BB0895442329
S113048019F0413079F0089544B321E030E0B90126
S113049002C0660F771F8A95E2F7CB01809584230B
S11304A084BB089544B321E030E0B90102C0660F73
S11304B0771F8A95E2F7CB01842B84BB08954423EC
S11304C019F0413079F0089541B321E030E0B901E9
S11304D002C0660F771F8A95E2F7CB0180958423CB
S11304E081BB089541B321E030E0B90102C0660F39
S11304F0771F8A95E2F7CB01842B81BB0895613085
S113050041F138F0623009F444C0633009F461C049
S11305100895442319F0413079F008954BB321E054
S113052030E0B90102C0660F771F8A95E2F7CB016C
S1130530809584238BBB08954BB321E030E0B9014F
S113054002C0660F771F8A95E2F7CB01842B8BBB21
S11305500895442319F0413079F0089548B321E017
S113056030E0B90102C0660F771F8A95E2F7CB012C
S11305708095842388BB089548B321E030E0B90115
S113058002C0660F771F8A95E2F7CB01842B88BBE4
S11305900895442319F0413079F0089545B321E0DA
S11305A030E0B90102C0660F771F8A95E2F7CB01EC
S11305B08095842385BB089545B321E030E0B901DB
S11305C002C0660F771F8A95E2F7CB01842B85BBA7
S11305D00895442319F0413079F0089542B321E09D
S11305E030E0B90102C0660F771F8A95E2F7CB01AC
S11305F08095842382BB089542B321E030E0B901A1
S113060002C0660F771F8A95E2F7CB01842B82BB69
S11306100895613099F028F06230E9F0633041F1D7
S113062008954BB321E030E0B90102C0660F771F93
S11306308A95E2F7CB0184278BBB089548B321E068
S113064030E0B90102C0660F771F8A95E2F7CB014B
S1130650842788BB089545B321E030E0B90102C086
S1130660660F771F8A95E2F7CB01842785BB08952F
S113067042B321E030E0B90102C0660F771F8A95CA
S1130680E2F7CB01842782BB089541E00E94F50183
S1130690089541E00E947F02089540E00E947F0295
S11306A008950E94090308950E94B1000E94E30086
S11306B0FDCF1F920F920FB60F9211242F933F93E9
S11306C04F935F936F937F938F939F93AF93BF9356
S11306D0EF93FF93E0917B00F0917C000995FF91EB
S11306E0EF91BF91AF919F918F917F916F915F91A6
S11306F04F913F912F910F900FBE0F901F9018951F
S11307001F920F920FB60F9211242F933F934F9382
S11307105F936F937F938F939F93AF93BF93EF9365
S1130720FF93E0917700F09178000995FF91EF91A4
S1130730BF91AF919F918F917F916F915F914F91F5
S11307403F912F910F900FBE0F901F90189591B36A
S11307509B7F91BB95B7892B85BF8BB780648BBF7B
S1130760089590937C0080937B00089580916C00A1
S1130770882391F090916B00992371F010926C0092
S113078081E080936E0010926A0080936D008093E4
S11307906B000E941A040895811109C081E08093BE
S11307A06C0064EF71E080E090E00E942D040895F5
S11307B093B7892B83BF089583B78F7C83BF83B797
S11307C0887F83BF089583B783BF0895CF92DF9254
S11307D0EF92FF926B017C0186E082BF81E00E9470
S11307E0D8030DC008B600FEFDCF9F5F88B78160B7
S11307F088BF01C090E09430A8F36A017B01B7017F
S1130800A6014150510961097109CD28CE28CF288C
S113081021F080916D00882369F310926D000E948D
S1130820DC03FF90EF90DF90CF90089595B5892B6E
S113083085BD089585B58F7C85BD85B5887F85BDCB
S1130840089595B595BD95B595BD29B730E4839FB9
S1130850C0011124822B89BF0895CF93C62F0E9413
S11308602C052FE632E143E85EE30E948B040E94EC
S1130870FD049B01AC012F5F3F4F4F4F5F4F20930F
S11308807F0030938000409381005093820068EE93
S1130890C69FC02D1124C1956C2F70E080E090E0BC
S11308A00E94BA0522BF81E00E941604CF910895E8
S11308B080916F0090917000A0917100B0917200CE
S11308C0AC01BD014F5F5F4F6F4F7F4F40936F008F
S11308D050937000609371007093720040917F0098
S11308E05091800060918100709182008417950777
S11308F0A607B70750F010926B0010926F00109289
S11309007000109271001092720008959093780014
S11309108093770008950E949F040C9480050E94A0
S1130920790558F00E94720540F029F45F3F29F0E0
S11309300C94690551110C94B4050C946F050E9434
S1130940910568F39923B1F3552391F3951B550B46
S1130950BB27AA2762177307840738F09F5F5F4F8E
S1130960220F331F441FAA1FA9F335D00E2E3AF0CD
S1130970E0E832D091505040E695001CCAF72BD0E5
S1130980FE2F29D0660F771F881FBB1F2617370736
S11309904807AB07B0E809F0BB0B802DBF01FF2768
S11309A093585F4F3AF09E3F510578F00C946905D7
S11309B00C94B4055F3FE4F3983ED4F386957795A1
S11309C06795B795F7959F5FC9F7880F911D969521
S11309D0879597F90895E1E0660F771F881FBB1F7D
S11309E0621773078407BA0720F0621B730B840B2A
S11309F0BA0BEE1F88F7E09508950E94990588F0D8
S1130A009F5798F0B92F9927B751B0F0E1F0660FCE
S1130A10771F881F991F1AF0BA95C9F714C0B1300F
S1130A2091F00E94B305B1E008950C94B305672FCB
S1130A30782F8827B85F39F0B93FCCF3869577953E
S1130A406795B395D9F73EF4909580957095619527
S1130A507F4F8F4F9F4F0895E89409C097FB3EF452
S1130A6090958095709561957F4F8F4F9F4F9923F7
S1130A70A9F0F92F96E9BB279395F6958795779575
S1130A806795B795F111F8CFFAF4BB0F11F460FF35
S1130A901BC06F5F7F4F8F4F9F4F16C0882311F08D
S1130AA096E911C0772321F09EE8872F762F05C0A1
S1130AB0662371F096E8862F70E060E02AF09A953C
S1130AC0660F771F881FDAF7880F9695879597F931
S1130AD0089597F99F6780E870E060E008959FEFBC
S1130AE080EC089500240A941616170618060906C1
S1130AF0089500240A941216130614060506089590
S1130B00092E0394000C11F4882352F0BB0F40F417
S1130B10BF2B11F460FF04C06F5F7F4F8F4F9F4F57
S1130B20089557FD9058440F551F59F05F3F71F0D9
S1130B304795880F97FB991F61F09F3F79F0879540
S1130B400895121613061406551FF2CF4695F1DFC9
S1130B5008C0161617061806991FF1CF8695710559
S1130B60610508940895E894BB2766277727CB018D
S1130B7097F90895A1E21A2EAA1BBB1BFD010DC013
S1130B80AA1FBB1FEE1FFF1FA217B307E407F50739
S1130B9020F0A21BB30BE40BF50B661F771F881F15
S1130BA0991F1A9469F760957095809590959B01AB
S10F0BB0AC01BD01CF010895F894FFCF03
S10F0BBC49006A008B00AA0086010101B8
S9030000FC
