S016000054726166666963204C69676874732E73726563C4
S11300000C942A000C9438030C9447000C94470079
S11300100C9447000C9447000C9447000C94470040
S11300200C9447000C9447000C9447000C94470030
S11300300C9447000C9447000C9447000C94470020
S11300400C9447000C9447000C9447000C94470010
S11300500C94470011241FBECFE5D8E0DEBFCDBF0E
S113006010E0A0E6B0E0E8E6F7E002C005900D92EB
S1130070AA36B107D9F720E0AAE6B0E001C01D9284
S1130080A637B207E1F70E9433030C94B2030C9431
S1130090000010926B0060E083E00E94280360E09F
S11300A082E00E94280360E080E00E942C0360E06C
S11300B081E00E942C0360E085E00E942C0360E054
S11300C084E00E942C0368E873E180E090E00E94E1
S11300D08203089560E085E00E94280360E080E0E8
S11300E00E94280360E082E00E942C0360E081E02B
S11300F00E942C0360E083E00E942C0360E084E013
S11301000E942C0368E873E180E090E00E9482037F
S1130110089560E084E00E94280360E081E00E948A
S1130120280360E082E00E942C0360E080E00E94EB
S11301302C0360E083E00E942C0360E085E00E94D1
S11301402C0368E873E180E090E00E948203089544
S113015068E873E180E090E00E948203089560E023
S113016080E00E94240360E082E00E94240360E0B7
S113017081E00E94240360E083E00E94240360E0A5
S113018085E00E94240360E084E00E94240363E08D
S113019082E00E94940183E00E945F030E947F0337
S11301A08EE693E00E946903ECE6F0E0108211828F
S11301B078940895CF93DF93CCE6D0E0E881F0E023
S11301C0EE0FFF1FE05AFF4F0190F081E02D0995DB
S11301D08881823099F128F4882351F08130D1F05C
S11301E062C0833009F448C0843009F44CC05BC059
S11301F080916B00813041F4ECE6F0E084E0808390
S1130200118210926B004FC0ECE6F0E082E0808334
S1130210118249C080916B00813049F4ECE6F0E032
S113022083E0808381E0818310926B003CC0ECE624
S1130230F0E082E0808381E0818335C080916B00AF
S1130240813049F4ECE6F0E084E0808382E081834D
S113025010926B0028C080916D00811107C0ECE6FC
S1130260F0E081E0808382E081831DC0ECE6F0E071
S1130270108282E0818317C0ECE6F0E084E08083A2
S113028083E0818310C080916D00833031F4ECE60B
S1130290F0E0108284E0818306C0ECE6F0E081E0C7
S11302A0808384E08183DF91CF9108950E947F034E
S11302B060E084E00E94300360E081E00E9430034B
S11302C064EF71E080E090E00E94820360E084E0EB
S11302D00E94300360E081E00E94300364EF71E02B
S11302E080E090E00E9482030895CF93DF9360E062
S11302F082E00E942C0360E080E00E942C0360E016
S113030083E00E942C0360E085E00E942C0385E0DA
S113031090E003C00E945601CE01EC012197892B85
S1130320C9F7DF91CF9108956130A1F028F06230D0
S1130330F9F0633059F108954AB321E030E0B9018E
S113034002C0660F771F8A95E2F7CB01809584235C
S11303508ABB089547B321E030E0B90102C0660FBB
S1130360771F8A95E2F7CB018095842387BB089594
S113037044B321E030E0B90102C0660F771F8A95CB
S1130380E2F7CB018095842384BB089541B321E037
S113039030E0B90102C0660F771F8A95E2F7CB01FE
S11303A08095842381BB0895613041F138F0623037
S11303B009F444C0633009F461C00895442319F07A
S11303C0413079F008954AB321E030E0B90102C028
S11303D0660F771F8A95E2F7CB01809584238ABB49
S11303E008954AB321E030E0B90102C0660F771FD7
S11303F08A95E2F7CB01842B8ABB0895442319F034
S1130400413079F0089547B321E030E0B90102C0EA
S1130410660F771F8A95E2F7CB018095842387BB0B
S1130420089547B321E030E0B90102C0660F771F99
S11304308A95E2F7CB01842B87BB0895442319F0F6
S1130440413079F0089544B321E030E0B90102C0AD
S1130450660F771F8A95E2F7CB018095842384BBCE
S1130460089544B321E030E0B90102C0660F771F5C
S11304708A95E2F7CB01842B84BB0895442319F0B9
S1130480413079F0089541B321E030E0B90102C070
S1130490660F771F8A95E2F7CB018095842381BB91
S11304A0089541B321E030E0B90102C0660F771F1F
S11304B08A95E2F7CB01842B81BB0895613041F129
S11304C038F0623009F444C0633009F461C008951F
S11304D0442319F0413079F008954BB321E030E022
S11304E0B90102C0660F771F8A95E2F7CB018095A8
S11304F084238BBB08954BB321E030E0B90102C0E3
S1130500660F771F8A95E2F7CB01842B8BBB089586
S1130510442319F0413079F0089548B321E030E0E4
S1130520B90102C0660F771F8A95E2F7CB01809567
S1130530842388BB089548B321E030E0B90102C0A8
S1130540660F771F8A95E2F7CB01842B88BB089549
S1130550442319F0413079F0089545B321E030E0A7
S1130560B90102C0660F771F8A95E2F7CB01809527
S1130570842385BB089545B321E030E0B90102C06E
S1130580660F771F8A95E2F7CB01842B85BB08950C
S1130590442319F0413079F0089542B321E030E06A
S11305A0B90102C0660F771F8A95E2F7CB018095E7
S11305B0842382BB089542B321E030E0B90102C034
S11305C0660F771F8A95E2F7CB01842B82BB0895CF
S11305D0613099F028F06230E9F0633041F1089518
S11305E04BB321E030E0B90102C0660F771F8A9552
S11305F0E2F7CB0184278BBB089548B321E030E0B8
S1130600B90102C0660F771F8A95E2F7CB018427F0
S113061088BB089545B321E030E0B90102C0660FFC
S1130620771F8A95E2F7CB01842785BB089542B3EF
S113063021E030E0B90102C0660F771F8A95E2F726
S1130640CB01842782BB089541E00E94D401089520
S113065041E00E945E02089540E00E945E02089517
S11306600E94E80208950E94AF000E94DA00FDCFC4
S11306701F920F920FB60F9211242F933F934F9313
S11306805F936F937F938F939F93AF93BF93EF93F6
S1130690FF93E0917200F09173000995FF91EF913F
S11306A0BF91AF919F918F917F916F915F914F9186
S11306B03F912F910F900FBE0F901F90189591B3FB
S11306C09B7F91BB95B7892B85BF8BB780648BBF0C
S11306D008959093730080937200089581E080934D
S11306E06B0080936A00089593B7892B83BF0895A4
S11306F083B78F7C83BF83B7887F83BF089583B715
S113070083BF0895CF92DF92EF92FF926B017C0139
S113071086E082BF81E00E9474030DC008B600FE2B
S1130720FDCF9F5F88B7816088BF01C090E094309F
S1130730A8F36A017B01B701A6014150510961097F
S11307407109CD28CE28CF2821F080916A00882312
S113075069F310926A000E947803FF90EF90DF9093
S10B0760CF900895F894FFCF37
S10D076849006A008900A800750129
S9030000FC
